{"src/task3/AMM.sol":{"AMM":{"abi":[{"type":"constructor","inputs":[{"name":"_tokenA","type":"address","internalType":"address"},{"name":"_tokenB","type":"address","internalType":"address"},{"name":"_lpToken","type":"address","internalType":"address"}],"stateMutability":"nonpayable"},{"type":"function","name":"FEE","inputs":[],"outputs":[{"name":"","type":"uint256","internalType":"uint256"}],"stateMutability":"view"},{"type":"function","name":"FEE_DENOMINATOR","inputs":[],"outputs":[{"name":"","type":"uint256","internalType":"uint256"}],"stateMutability":"view"},{"type":"function","name":"addLiquidity","inputs":[{"name":"amountA","type":"uint256","internalType":"uint256"},{"name":"amountB","type":"uint256","internalType":"uint256"},{"name":"minLpOut","type":"uint256","internalType":"uint256"}],"outputs":[{"name":"lpMinted","type":"uint256","internalType":"uint256"}],"stateMutability":"nonpayable"},{"type":"function","name":"getAmountOut","inputs":[{"name":"amountIn","type":"uint256","internalType":"uint256"},{"name":"reserveIn","type":"uint256","internalType":"uint256"},{"name":"reserveOut","type":"uint256","internalType":"uint256"}],"outputs":[{"name":"","type":"uint256","internalType":"uint256"}],"stateMutability":"pure"},{"type":"function","name":"getK","inputs":[],"outputs":[{"name":"","type":"uint256","internalType":"uint256"}],"stateMutability":"view"},{"type":"function","name":"lpToken","inputs":[],"outputs":[{"name":"","type":"address","internalType":"contract ILPToken"}],"stateMutability":"view"},{"type":"function","name":"removeLiquidity","inputs":[{"name":"lpAmount","type":"uint256","internalType":"uint256"},{"name":"minAmountA","type":"uint256","internalType":"uint256"},{"name":"minAmountB","type":"uint256","internalType":"uint256"}],"outputs":[{"name":"amountA","type":"uint256","internalType":"uint256"},{"name":"amountB","type":"uint256","internalType":"uint256"}],"stateMutability":"nonpayable"},{"type":"function","name":"reserveA","inputs":[],"outputs":[{"name":"","type":"uint256","internalType":"uint256"}],"stateMutability":"view"},{"type":"function","name":"reserveB","inputs":[],"outputs":[{"name":"","type":"uint256","internalType":"uint256"}],"stateMutability":"view"},{"type":"function","name":"swapAForB","inputs":[{"name":"amountAIn","type":"uint256","internalType":"uint256"},{"name":"minBOut","type":"uint256","internalType":"uint256"}],"outputs":[{"name":"amountBOut","type":"uint256","internalType":"uint256"}],"stateMutability":"nonpayable"},{"type":"function","name":"swapBForA","inputs":[{"name":"amountBIn","type":"uint256","internalType":"uint256"},{"name":"minAOut","type":"uint256","internalType":"uint256"}],"outputs":[{"name":"amountAOut","type":"uint256","internalType":"uint256"}],"stateMutability":"nonpayable"},{"type":"function","name":"tokenA","inputs":[],"outputs":[{"name":"","type":"address","internalType":"contract IERC20"}],"stateMutability":"view"},{"type":"function","name":"tokenB","inputs":[],"outputs":[{"name":"","type":"address","internalType":"contract IERC20"}],"stateMutability":"view"},{"type":"event","name":"LiquidityAdded","inputs":[{"name":"provider","type":"address","indexed":true,"internalType":"address"},{"name":"amountA","type":"uint256","indexed":false,"internalType":"uint256"},{"name":"amountB","type":"uint256","indexed":false,"internalType":"uint256"},{"name":"lpMinted","type":"uint256","indexed":false,"internalType":"uint256"}],"anonymous":false},{"type":"event","name":"LiquidityRemoved","inputs":[{"name":"provider","type":"address","indexed":true,"internalType":"address"},{"name":"amountA","type":"uint256","indexed":false,"internalType":"uint256"},{"name":"amountB","type":"uint256","indexed":false,"internalType":"uint256"},{"name":"lpBurned","type":"uint256","indexed":false,"internalType":"uint256"}],"anonymous":false},{"type":"event","name":"Swap","inputs":[{"name":"trader","type":"address","indexed":true,"internalType":"address"},{"name":"tokenIn","type":"address","indexed":true,"internalType":"address"},{"name":"amountIn","type":"uint256","indexed":false,"internalType":"uint256"},{"name":"amountOut","type":"uint256","indexed":false,"internalType":"uint256"}],"anonymous":false}],"userdoc":{},"devdoc":{},"evm":{"bytecode":{"object":"608060405234801562000010575f80fd5b50604051620014d9380380620014d98339810160408190526200003391620001d7565b6001600160a01b038316620000815760405162461bcd60e51b815260206004820152600f60248201526e496e76616c696420746f6b656e204160881b60448201526064015b60405180910390fd5b6001600160a01b038216620000cb5760405162461bcd60e51b815260206004820152600f60248201526e24b73b30b634b2103a37b5b2b7102160891b604482015260640162000078565b6001600160a01b038116620001165760405162461bcd60e51b815260206004820152601060248201526f24b73b30b634b2102628103a37b5b2b760811b604482015260640162000078565b816001600160a01b0316836001600160a01b031603620001795760405162461bcd60e51b815260206004820152601860248201527f546f6b656e73206d75737420626520646966666572656e740000000000000000604482015260640162000078565b5f80546001600160a01b039485166001600160a01b0319918216179091556001805493851693821693909317909255600280549190931691161790556200021e565b80516001600160a01b0381168114620001d2575f80fd5b919050565b5f805f60608486031215620001ea575f80fd5b620001f584620001bb565b92506200020560208501620001bb565b91506200021560408501620001bb565b90509250925092565b6112ad806200022c5f395ff3fe608060405234801561000f575f80fd5b50600436106100cb575f3560e01c80635f64b55b11610088578063c57981b511610063578063c57981b5146101af578063d73792a9146101b7578063dc5fa6c5146101c0578063ee39e7a0146101c9575f80fd5b80635f64b55b146101615780635fcbd28514610174578063857620e114610187575f80fd5b8063054d50d4146100cf5780630fc63d10146100f557806319e36f3b1461011f578063422f104314610128578063553a1db71461013b5780635938c86b1461014e575b5f80fd5b6100e26100dd3660046110af565b6101d1565b6040519081526020015b60405180910390f35b5f54610107906001600160a01b031681565b6040516001600160a01b0390911681526020016100ec565b6100e260045481565b6100e26101363660046110af565b6102d3565b6100e26101493660046110d8565b61072f565b6100e261015c3660046110d8565b610997565b600154610107906001600160a01b031681565b600254610107906001600160a01b031681565b61019a6101953660046110af565b610bf5565b604080519283526020830191909152016100ec565b6100e2600381565b6100e26103e881565b6100e260035481565b6100e2611035565b5f8084116102325760405162461bcd60e51b815260206004820152602360248201527f496e70757420616d6f756e74206d75737420626520677265617465722074686160448201526206e20360ec1b60648201526084015b60405180910390fd5b5f8311801561024057505f82115b61027f5760405162461bcd60e51b815260206004820152601060248201526f496e76616c696420726573657276657360801b6044820152606401610229565b5f6103e861028e60038261110c565b610298908761111f565b6102a29190611136565b90505f6102af828561111f565b90505f6102bc8387611155565b90506102c88183611136565b979650505050505050565b5f80841180156102e257505f83115b61032e5760405162461bcd60e51b815260206004820152601e60248201527f416d6f756e7473206d7573742062652067726561746572207468616e203000006044820152606401610229565b5f546040516323b872dd60e01b81526001600160a01b03909116906323b872dd9061036190339030908990600401611168565b6020604051808303815f875af115801561037d573d5f803e3d5ffd5b505050506040513d601f19601f820116820180604052508101906103a1919061118c565b6103bd5760405162461bcd60e51b8152600401610229906111ab565b6001546040516323b872dd60e01b81526001600160a01b03909116906323b872dd906103f190339030908890600401611168565b6020604051808303815f875af115801561040d573d5f803e3d5ffd5b505050506040513d601f19601f82011682018060405250810190610431919061118c565b61044d5760405162461bcd60e51b8152600401610229906111db565b5f8460035461045c9190611155565b90505f8460045461046d9190611155565b905060025f9054906101000a90046001600160a01b03166001600160a01b03166318160ddd6040518163ffffffff1660e01b8152600401602060405180830381865afa1580156104bf573d5f803e3d5ffd5b505050506040513d601f19601f820116820180604052508101906104e3919061120b565b5f03610502576104fb6104f6868861111f565b61104b565b9250610629565b600354600254604080516318160ddd60e01b815290515f93926001600160a01b0316916318160ddd9160048083019260209291908290030181865afa15801561054d573d5f803e3d5ffd5b505050506040513d601f19601f82011682018060405250810190610571919061120b565b61057b908961111f565b6105859190611136565b90505f60045460025f9054906101000a90046001600160a01b03166001600160a01b03166318160ddd6040518163ffffffff1660e01b8152600401602060405180830381865afa1580156105db573d5f803e3d5ffd5b505050506040513d601f19601f820116820180604052508101906105ff919061120b565b610609908961111f565b6106139190611136565b90508082106106225780610624565b815b945050505b8383101561067a5760405162461bcd60e51b815260206004820152602b60248201525f8051602061125883398151915260448201526a1d081314081bdd5d1c1d5d60aa1b6064820152608401610229565b6002546040516340c10f1960e01b8152336004820152602481018590526001600160a01b03909116906340c10f19906044015f604051808303815f87803b1580156106c3575f80fd5b505af11580156106d5573d5f803e3d5ffd5b5050506003839055506004819055604080518781526020810187905290810184905233907f64b83944e79c3ce8d4c297411de637c3e102d064677aac0c163976ebdcd6f50e9060600160405180910390a250509392505050565b5f80831161077f5760405162461bcd60e51b815260206004820152601d60248201527f416d6f756e74206d7573742062652067726561746572207468616e20300000006044820152606401610229565b5f546040516323b872dd60e01b81526001600160a01b03909116906323b872dd906107b290339030908890600401611168565b6020604051808303815f875af11580156107ce573d5f803e3d5ffd5b505050506040513d601f19601f820116820180604052508101906107f2919061118c565b61080e5760405162461bcd60e51b8152600401610229906111ab565b61081d836003546004546101d1565b90508181101561083f5760405162461bcd60e51b815260040161022990611222565b60045481111561088a5760405162461bcd60e51b815260206004820152601660248201527524b739bab33334b1b4b2b73a103932b9b2b93b32902160511b6044820152606401610229565b8260035f82825461089b9190611155565b925050819055508060045f8282546108b3919061110c565b909155505060015460405163a9059cbb60e01b8152336004820152602481018390526001600160a01b039091169063a9059cbb906044016020604051808303815f875af1158015610906573d5f803e3d5ffd5b505050506040513d601f19601f8201168201806040525081019061092a919061118c565b6109465760405162461bcd60e51b8152600401610229906111db565b5f5460408051858152602081018490526001600160a01b039092169133917ffa2dda1cc1b86e41239702756b13effbc1a092b5c57e3ad320fbe4f3b13fe23591015b60405180910390a35b92915050565b5f8083116109e75760405162461bcd60e51b815260206004820152601d60248201527f416d6f756e74206d7573742062652067726561746572207468616e20300000006044820152606401610229565b6001546040516323b872dd60e01b81526001600160a01b03909116906323b872dd90610a1b90339030908890600401611168565b6020604051808303815f875af1158015610a37573d5f803e3d5ffd5b505050506040513d601f19601f82011682018060405250810190610a5b919061118c565b610a775760405162461bcd60e51b8152600401610229906111db565b610a86836004546003546101d1565b905081811015610aa85760405162461bcd60e51b815260040161022990611222565b600354811115610af35760405162461bcd60e51b8152602060048201526016602482015275496e73756666696369656e742072657365727665204160501b6044820152606401610229565b8260045f828254610b049190611155565b925050819055508060035f828254610b1c919061110c565b90915550505f5460405163a9059cbb60e01b8152336004820152602481018390526001600160a01b039091169063a9059cbb906044016020604051808303815f875af1158015610b6e573d5f803e3d5ffd5b505050506040513d601f19601f82011682018060405250810190610b92919061118c565b610bae5760405162461bcd60e51b8152600401610229906111ab565b60015460408051858152602081018490526001600160a01b039092169133917ffa2dda1cc1b86e41239702756b13effbc1a092b5c57e3ad320fbe4f3b13fe2359101610988565b5f805f8511610c465760405162461bcd60e51b815260206004820181905260248201527f4c5020616d6f756e74206d7573742062652067726561746572207468616e20306044820152606401610229565b6002546040516370a0823160e01b815233600482015286916001600160a01b0316906370a0823190602401602060405180830381865afa158015610c8c573d5f803e3d5ffd5b505050506040513d601f19601f82011682018060405250810190610cb0919061120b565b1015610cfe5760405162461bcd60e51b815260206004820152601760248201527f496e73756666696369656e74204c502062616c616e63650000000000000000006044820152606401610229565b600254604080516318160ddd60e01b815290515f926001600160a01b0316916318160ddd9160048083019260209291908290030181865afa158015610d45573d5f803e3d5ffd5b505050506040513d601f19601f82011682018060405250810190610d69919061120b565b90508060035487610d7a919061111f565b610d849190611136565b92508060045487610d95919061111f565b610d9f9190611136565b915084831015610df15760405162461bcd60e51b815260206004820152602a60248201525f805160206112588339815191526044820152691d0810481bdd5d1c1d5d60b21b6064820152608401610229565b83821015610e415760405162461bcd60e51b815260206004820152602a60248201525f805160206112588339815191526044820152691d0810881bdd5d1c1d5d60b21b6064820152608401610229565b600254604051632770a7eb60e21b8152336004820152602481018890526001600160a01b0390911690639dc29fac906044015f604051808303815f87803b158015610e8a575f80fd5b505af1158015610e9c573d5f803e3d5ffd5b505050508260035f828254610eb1919061110c565b925050819055508160045f828254610ec9919061110c565b90915550505f5460405163a9059cbb60e01b8152336004820152602481018590526001600160a01b039091169063a9059cbb906044016020604051808303815f875af1158015610f1b573d5f803e3d5ffd5b505050506040513d601f19601f82011682018060405250810190610f3f919061118c565b610f5b5760405162461bcd60e51b8152600401610229906111ab565b60015460405163a9059cbb60e01b8152336004820152602481018490526001600160a01b039091169063a9059cbb906044016020604051808303815f875af1158015610fa9573d5f803e3d5ffd5b505050506040513d601f19601f82011682018060405250810190610fcd919061118c565b610fe95760405162461bcd60e51b8152600401610229906111db565b604080518481526020810184905290810187905233907f1dc8bb69df2b8e91fbdcbfcf93d951b3f0000f085a95fe3f7946d6161439245d9060600160405180910390a250935093915050565b5f600454600354611046919061111f565b905090565b5f815f0361105a57505f919050565b5f6002611068846001611155565b6110729190611136565b9050825b808210156110a857508060028161108d8187611136565b6110979190611155565b6110a19190611136565b9150611076565b9392505050565b5f805f606084860312156110c1575f80fd5b505081359360208301359350604090920135919050565b5f80604083850312156110e9575f80fd5b50508035926020909101359150565b634e487b7160e01b5f52601160045260245ffd5b81810381811115610991576109916110f8565b8082028115828204841417610991576109916110f8565b5f8261115057634e487b7160e01b5f52601260045260245ffd5b500490565b80820180821115610991576109916110f8565b6001600160a01b039384168152919092166020820152604081019190915260600190565b5f6020828403121561119c575f80fd5b815180151581146110a8575f80fd5b602080825260169082015275151bdad95b90481d1c985b9cd9995c8819985a5b195960521b604082015260600190565b602080825260169082015275151bdad95b90881d1c985b9cd9995c8819985a5b195960521b604082015260600190565b5f6020828403121561121b575f80fd5b5051919050565b60208082526028908201525f805160206112588339815191526040820152671d081bdd5d1c1d5d60c21b60608201526080019056fe536c6970706167652070726f74656374696f6e3a20696e73756666696369656ea2646970667358221220f2a1e4109bf19bda010e0b2aec581cdcca869b1a910f99a1dafa7af8d1609a0764736f6c63430008140033","linkReferences":{}},"methodIdentifiers":{"FEE()":"c57981b5","FEE_DENOMINATOR()":"d73792a9","addLiquidity(uint256,uint256,uint256)":"422f1043","getAmountOut(uint256,uint256,uint256)":"054d50d4","getK()":"ee39e7a0","lpToken()":"5fcbd285","removeLiquidity(uint256,uint256,uint256)":"857620e1","reserveA()":"dc5fa6c5","reserveB()":"19e36f3b","swapAForB(uint256,uint256)":"553a1db7","swapBForA(uint256,uint256)":"5938c86b","tokenA()":"0fc63d10","tokenB()":"5f64b55b"}}}}}