{"src/task1/SimpleToken.sol":{"SimpleToken":{"abi":[{"type":"function","name":"getSupply","inputs":[],"outputs":[{"name":"","type":"uint256","internalType":"uint256"}],"stateMutability":"view"},{"type":"function","name":"name","inputs":[],"outputs":[{"name":"","type":"string","internalType":"string"}],"stateMutability":"view"},{"type":"function","name":"supply","inputs":[],"outputs":[{"name":"","type":"uint256","internalType":"uint256"}],"stateMutability":"view"}],"userdoc":{},"devdoc":{},"evm":{"bytecode":{"object":"60c0604052600a6080908152692a32b9ba102a37b5b2b760b11b60a0525f9061002890826100da565b506103e860015534801561003a575f80fd5b50610195565b634e487b7160e01b5f52604160045260245ffd5b600181811c9082168061006857607f821691505b60208210810361008657634e487b7160e01b5f52602260045260245ffd5b50919050565b601f8211156100d5575f81815260208120601f850160051c810160208610156100b25750805b601f850160051c820191505b818110156100d1578281556001016100be565b5050505b505050565b81516001600160401b038111156100f3576100f3610040565b610107816101018454610054565b8461008c565b602080601f83116001811461013a575f84156101235750858301515b5f19600386901b1c1916600185901b1785556100d1565b5f85815260208120601f198616915b8281101561016857888601518255948401946001909101908401610149565b508582101561018557878501515f19600388901b60f8161c191681555b5050505050600190811b01905550565b6101c0806101a25f395ff3fe608060405234801561000f575f80fd5b506004361061003f575f3560e01c8063047fc9aa1461004357806306fdde031461005f5780636c9c2faf14610074575b5f80fd5b61004c60015481565b6040519081526020015b60405180910390f35b61006761007c565b6040516100569190610107565b60015461004c565b5f805461008890610152565b80601f01602080910402602001604051908101604052809291908181526020018280546100b490610152565b80156100ff5780601f106100d6576101008083540402835291602001916100ff565b820191905f5260205f20905b8154815290600101906020018083116100e257829003601f168201915b505050505081565b5f6020808352835180828501525f5b8181101561013257858101830151858201604001528201610116565b505f604082860101526040601f19601f8301168501019250505092915050565b600181811c9082168061016657607f821691505b60208210810361018457634e487b7160e01b5f52602260045260245ffd5b5091905056fea2646970667358221220c21c49350731811279589e32b92e45e390aead0af30dde2504a055299ba6a1ba64736f6c63430008140033","linkReferences":{}},"methodIdentifiers":{"getSupply()":"6c9c2faf","name()":"06fdde03","supply()":"047fc9aa"}}}}}