{"src/task5/LendingPool.sol":{"LendingPool":{"abi":[{"type":"constructor","inputs":[{"name":"_token","type":"address","internalType":"address"}],"stateMutability":"nonpayable"},{"type":"function","name":"INTEREST_RATE","inputs":[],"outputs":[{"name":"","type":"uint256","internalType":"uint256"}],"stateMutability":"view"},{"type":"function","name":"LIQUIDATION_BONUS","inputs":[],"outputs":[{"name":"","type":"uint256","internalType":"uint256"}],"stateMutability":"view"},{"type":"function","name":"LTV","inputs":[],"outputs":[{"name":"","type":"uint256","internalType":"uint256"}],"stateMutability":"view"},{"type":"function","name":"accrueInterest","inputs":[{"name":"user","type":"address","internalType":"address"}],"outputs":[],"stateMutability":"nonpayable"},{"type":"function","name":"borrow","inputs":[{"name":"amount","type":"uint256","internalType":"uint256"}],"outputs":[],"stateMutability":"nonpayable"},{"type":"function","name":"deposit","inputs":[{"name":"amount","type":"uint256","internalType":"uint256"}],"outputs":[],"stateMutability":"nonpayable"},{"type":"function","name":"getAvailableLiquidity","inputs":[],"outputs":[{"name":"","type":"uint256","internalType":"uint256"}],"stateMutability":"view"},{"type":"function","name":"getHealthFactor","inputs":[{"name":"user","type":"address","internalType":"address"}],"outputs":[{"name":"","type":"uint256","internalType":"uint256"}],"stateMutability":"view"},{"type":"function","name":"getMaxBorrow","inputs":[{"name":"user","type":"address","internalType":"address"}],"outputs":[{"name":"","type":"uint256","internalType":"uint256"}],"stateMutability":"view"},{"type":"function","name":"getPoolStats","inputs":[],"outputs":[{"name":"_totalCollateral","type":"uint256","internalType":"uint256"},{"name":"_totalBorrowed","type":"uint256","internalType":"uint256"}],"stateMutability":"view"},{"type":"function","name":"getPosition","inputs":[{"name":"user","type":"address","internalType":"address"}],"outputs":[{"name":"collateral","type":"uint256","internalType":"uint256"},{"name":"borrowed","type":"uint256","internalType":"uint256"}],"stateMutability":"view"},{"type":"function","name":"isLiquidatable","inputs":[{"name":"user","type":"address","internalType":"address"}],"outputs":[{"name":"","type":"bool","internalType":"bool"}],"stateMutability":"view"},{"type":"function","name":"liquidate","inputs":[{"name":"borrower","type":"address","internalType":"address"},{"name":"repayAmount","type":"uint256","internalType":"uint256"}],"outputs":[],"stateMutability":"nonpayable"},{"type":"function","name":"positions","inputs":[{"name":"","type":"address","internalType":"address"}],"outputs":[{"name":"collateral","type":"uint256","internalType":"uint256"},{"name":"borrowed","type":"uint256","internalType":"uint256"},{"name":"lastInterestUpdate","type":"uint256","internalType":"uint256"}],"stateMutability":"view"},{"type":"function","name":"repay","inputs":[{"name":"amount","type":"uint256","internalType":"uint256"}],"outputs":[],"stateMutability":"nonpayable"},{"type":"function","name":"token","inputs":[],"outputs":[{"name":"","type":"address","internalType":"contract IERC20"}],"stateMutability":"view"},{"type":"function","name":"totalBorrowed","inputs":[],"outputs":[{"name":"","type":"uint256","internalType":"uint256"}],"stateMutability":"view"},{"type":"function","name":"totalCollateral","inputs":[],"outputs":[{"name":"","type":"uint256","internalType":"uint256"}],"stateMutability":"view"},{"type":"function","name":"withdraw","inputs":[{"name":"amount","type":"uint256","internalType":"uint256"}],"outputs":[],"stateMutability":"nonpayable"},{"type":"event","name":"Borrow","inputs":[{"name":"user","type":"address","indexed":true,"internalType":"address"},{"name":"amount","type":"uint256","indexed":false,"internalType":"uint256"}],"anonymous":false},{"type":"event","name":"Deposit","inputs":[{"name":"user","type":"address","indexed":true,"internalType":"address"},{"name":"amount","type":"uint256","indexed":false,"internalType":"uint256"}],"anonymous":false},{"type":"event","name":"Liquidate","inputs":[{"name":"liquidator","type":"address","indexed":true,"internalType":"address"},{"name":"borrower","type":"address","indexed":true,"internalType":"address"},{"name":"amount","type":"uint256","indexed":false,"internalType":"uint256"}],"anonymous":false},{"type":"event","name":"Repay","inputs":[{"name":"user","type":"address","indexed":true,"internalType":"address"},{"name":"amount","type":"uint256","indexed":false,"internalType":"uint256"}],"anonymous":false},{"type":"event","name":"Withdraw","inputs":[{"name":"user","type":"address","indexed":true,"internalType":"address"},{"name":"amount","type":"uint256","indexed":false,"internalType":"uint256"}],"anonymous":false}],"userdoc":{},"devdoc":{},"evm":{"bytecode":{"object":"608060405234801561000f575f80fd5b506040516112e83803806112e883398101604081905261002e9161009c565b6001600160a01b0381166100785760405162461bcd60e51b815260206004820152600d60248201526c24b73b30b634b2103a37b5b2b760991b604482015260640160405180910390fd5b5f80546001600160a01b0319166001600160a01b03929092169190911790556100c9565b5f602082840312156100ac575f80fd5b81516001600160a01b03811681146100c2575f80fd5b9392505050565b611212806100d65f395ff3fe608060405234801561000f575f80fd5b506004361061011c575f3560e01c806362965d8e116100a9578063bcbaf4871161006e578063bcbaf4871461028c578063c5ebeaec1461029f578063fc0c546a146102b2578063fd1c317a146102dc578063fe6bcd7c146102ef575f80fd5b806362965d8e1461024b5780639198e515146102535780639b745aec14610266578063b6b55f251461026e578063bbb8518814610281575f80fd5b8063371fd8e6116100ef578063371fd8e6146101d65780634ac8eb5f146101e95780634c19386c146101f257806355f57510146101fb5780635b72a33a14610243575f80fd5b8063042e02cf1461012057806316c19739146101485780632e1a7d4d146101ab5780633574d4c4146101c0575b5f80fd5b61013361012e366004611078565b610302565b60405190151581526020015b60405180910390f35b610196610156366004611078565b6001600160a01b03165f90815260016020818152604092839020835160608101855281548082529382015492810183905260029091015493019290925291565b6040805192835260208301919091520161013f565b6101be6101b9366004611091565b610315565b005b6101c8600a81565b60405190815260200161013f565b6101be6101e4366004611091565b610559565b6101c860025481565b6101c860035481565b610228610209366004611078565b600160208190525f918252604090912080549181015460029091015483565b6040805193845260208401929092529082015260600161013f565b6101c8600581565b6101c8604b81565b6101be610261366004611078565b61073a565b6101c86107ee565b6101be61027c366004611091565b61086d565b600254600354610196565b6101be61029a3660046110a8565b6109c0565b6101be6102ad366004611091565b610d19565b5f546102c4906001600160a01b031681565b6040516001600160a01b03909116815260200161013f565b6101c86102ea366004611078565b610f96565b6101c86102fd366004611078565b610ff2565b5f606461030e83610ff2565b1092915050565b5f811161033d5760405162461bcd60e51b8152600401610334906110d0565b60405180910390fd5b335f9081526001602052604090205481111561039b5760405162461bcd60e51b815260206004820152601760248201527f496e73756666696369656e7420636f6c6c61746572616c0000000000000000006044820152606401610334565b6103a43361073a565b335f908152600160205260408120546103be90839061111b565b335f90815260016020819052604090912001549091508015610457575f604b6103e8836064611134565b6103f2919061114b565b9050808310156104555760405162461bcd60e51b815260206004820152602860248201527f5769746864726177616c20776f756c64206d616b6520706f736974696f6e20756044820152676e6865616c74687960c01b6064820152608401610334565b505b335f908152600160205260408120805485929061047590849061111b565b925050819055508260025f82825461048d919061111b565b90915550505f5460405163a9059cbb60e01b8152336004820152602481018590526001600160a01b039091169063a9059cbb906044016020604051808303815f875af11580156104df573d5f803e3d5ffd5b505050506040513d601f19601f82011682018060405250810190610503919061116a565b61051f5760405162461bcd60e51b815260040161033490611189565b60405183815233907f884edad9ce6fa2440d8a54cc123490eb96d2768479d49ff9c7366125a94243649060200160405180910390a2505050565b5f81116105785760405162461bcd60e51b8152600401610334906110d0565b6105813361073a565b335f9081526001602081905260409091200154806105d45760405162461bcd60e51b815260206004820152601060248201526f4e6f206465627420746f20726570617960801b6044820152606401610334565b808211156106305760405162461bcd60e51b8152602060048201526024808201527f526570617920616d6f756e74206578636565647320626f72726f77656420616d6044820152631bdd5b9d60e21b6064820152608401610334565b5f546040516323b872dd60e01b8152336004820152306024820152604481018490526001600160a01b03909116906323b872dd906064016020604051808303815f875af1158015610683573d5f803e3d5ffd5b505050506040513d601f19601f820116820180604052508101906106a7919061116a565b6106c35760405162461bcd60e51b815260040161033490611189565b335f90815260016020819052604082200180548492906106e490849061111b565b925050819055508160035f8282546106fc919061111b565b909155505060405182815233907f5c16de4f8b59bd9caf0f49a545f25819a895ed223294290b408242e72a5942319060200160405180910390a25050565b6001600160a01b0381165f908152600160208190526040822090810154909103610762575050565b5f816002015442610773919061111b565b9050805f0361078157505050565b5f63bbf81e0082600585600101546107999190611134565b6107a39190611134565b6107ad919061114b565b905080836001015f8282546107c291906111b2565b925050819055508060035f8282546107da91906111b2565b909155505042600290930192909255505050565b6002545f80546040516370a0823160e01b81523060048201529192916001600160a01b03909116906370a0823190602401602060405180830381865afa15801561083a573d5f803e3d5ffd5b505050506040513d601f19601f8201168201806040525081019061085e91906111c5565b610868919061111b565b905090565b5f811161088c5760405162461bcd60e51b8152600401610334906110d0565b5f546040516323b872dd60e01b8152336004820152306024820152604481018390526001600160a01b03909116906323b872dd906064016020604051808303815f875af11580156108df573d5f803e3d5ffd5b505050506040513d601f19601f82011682018060405250810190610903919061116a565b61091f5760405162461bcd60e51b815260040161033490611189565b335f908152600160205260408120805483929061093d9084906111b2565b925050819055508060025f82825461095591906111b2565b9091555050335f90815260016020526040812060020154900361098857335f908152600160205260409020426002909101555b60405181815233907fe1fffcc4923d04b559f4d29a8bfc6cda04eb5b0d3c460751c2402c5c5cc9109c9060200160405180910390a250565b6109c982610302565b610a155760405162461bcd60e51b815260206004820152601c60248201527f506f736974696f6e206973206e6f74206c6971756964617461626c65000000006044820152606401610334565b5f8111610a705760405162461bcd60e51b815260206004820152602360248201527f526570617920616d6f756e74206d75737420626520677265617465722074686160448201526206e20360ec1b6064820152608401610334565b6001600160a01b0382165f90815260016020819052604090912090810154821115610add5760405162461bcd60e51b815260206004820152601960248201527f526570617920616d6f756e7420657863656564732064656274000000000000006044820152606401610334565b5f6064610aeb600a85611134565b610af5919061114b565b610aff90846111b2565b8254909150811115610b535760405162461bcd60e51b815260206004820181905260248201527f496e73756666696369656e7420636f6c6c61746572616c20746f207365697a656044820152606401610334565b5f546040516323b872dd60e01b8152336004820152306024820152604481018590526001600160a01b03909116906323b872dd906064016020604051808303815f875af1158015610ba6573d5f803e3d5ffd5b505050506040513d601f19601f82011682018060405250810190610bca919061116a565b610be65760405162461bcd60e51b815260040161033490611189565b82826001015f828254610bf9919061111b565b90915550508154819083905f90610c1190849061111b565b925050819055508260035f828254610c29919061111b565b925050819055508060025f828254610c41919061111b565b90915550505f5460405163a9059cbb60e01b8152336004820152602481018390526001600160a01b039091169063a9059cbb906044016020604051808303815f875af1158015610c93573d5f803e3d5ffd5b505050506040513d601f19601f82011682018060405250810190610cb7919061116a565b610cd35760405162461bcd60e51b815260040161033490611189565b6040518381526001600160a01b0385169033907faef3faf684172084346f7dc2cc3bb1328d1cc23caec12dd9a82d4a4e56c00b179060200160405180910390a350505050565b5f8111610d385760405162461bcd60e51b8152600401610334906110d0565b610d413361073a565b335f90815260016020526040812054906064610d5e604b84611134565b610d68919061114b565b335f908152600160208190526040909120015490915081610d8985836111b2565b1115610dcb5760405162461bcd60e51b8152602060048201526011602482015270115e18d959591cc8131515881b1a5b5a5d607a1b6044820152606401610334565b6002545f546040516370a0823160e01b81523060048201526001600160a01b03909116906370a0823190602401602060405180830381865afa158015610e13573d5f803e3d5ffd5b505050506040513d601f19601f82011682018060405250810190610e3791906111c5565b610e41919061111b565b841115610e905760405162461bcd60e51b815260206004820152601b60248201527f496e73756666696369656e7420706f6f6c206c697175696469747900000000006044820152606401610334565b335f9081526001602081905260408220018054869290610eb19084906111b2565b925050819055508360035f828254610ec991906111b2565b90915550505f5460405163a9059cbb60e01b8152336004820152602481018690526001600160a01b039091169063a9059cbb906044016020604051808303815f875af1158015610f1b573d5f803e3d5ffd5b505050506040513d601f19601f82011682018060405250810190610f3f919061116a565b610f5b5760405162461bcd60e51b815260040161033490611189565b60405184815233907fcbc04eca7e9da35cb1393a6135a199ca52e450d5e9251cbd99f7847d33a367509060200160405180910390a250505050565b6001600160a01b0381165f90815260016020819052604082208054910154826064610fc2604b85611134565b610fcc919061114b565b9050808210610fdf57505f949350505050565b610fe9828261111b565b95945050505050565b6001600160a01b0381165f908152600160208181526040808420815160608101835281548152938101549284018390526002015490830152820361103957505f1992915050565b6020810151815161104c90604b90611134565b611056919061114b565b9392505050565b80356001600160a01b0381168114611073575f80fd5b919050565b5f60208284031215611088575f80fd5b6110568261105d565b5f602082840312156110a1575f80fd5b5035919050565b5f80604083850312156110b9575f80fd5b6110c28361105d565b946020939093013593505050565b6020808252601d908201527f416d6f756e74206d7573742062652067726561746572207468616e2030000000604082015260600190565b634e487b7160e01b5f52601160045260245ffd5b8181038181111561112e5761112e611107565b92915050565b808202811582820484141761112e5761112e611107565b5f8261116557634e487b7160e01b5f52601260045260245ffd5b500490565b5f6020828403121561117a575f80fd5b81518015158114611056575f80fd5b6020808252600f908201526e151c985b9cd9995c8819985a5b1959608a1b604082015260600190565b8082018082111561112e5761112e611107565b5f602082840312156111d5575f80fd5b505191905056fea264697066735822122080e58c017144bac819774eb9c85129419f59c67825e6893ae156a92ed42693d964736f6c63430008140033","linkReferences":{}},"methodIdentifiers":{"INTEREST_RATE()":"5b72a33a","LIQUIDATION_BONUS()":"3574d4c4","LTV()":"62965d8e","accrueInterest(address)":"9198e515","borrow(uint256)":"c5ebeaec","deposit(uint256)":"b6b55f25","getAvailableLiquidity()":"9b745aec","getHealthFactor(address)":"fe6bcd7c","getMaxBorrow(address)":"fd1c317a","getPoolStats()":"bbb85188","getPosition(address)":"16c19739","isLiquidatable(address)":"042e02cf","liquidate(address,uint256)":"bcbaf487","positions(address)":"55f57510","repay(uint256)":"371fd8e6","token()":"fc0c546a","totalBorrowed()":"4c19386c","totalCollateral()":"4ac8eb5f","withdraw(uint256)":"2e1a7d4d"}}}}}